8=FIX.4.4|9=100|35=A|49=SenderCompID|56=TargetCompID|34=1|52=20250210-12:00:00.000|98=0|108=30|10=123|
8=FIX.4.4|9=80|35=0|49=SenderCompID|56=TargetCompID|34=2|52=20250210-12:00:05.000|10=234|
8=FIX.4.4|9=150|35=8|49=SenderCompID|56=TargetCompID|34=3|52=20250210-12:00:10.000|11=Order123|17=ExecID1|150=0|39=0|55=AAPL|54=1|38=100|44=150.25|10=345|
8=FIX.4.4|9=80|35=0|49=SenderCompID|56=TargetCompID|34=4|52=20250210-12:00:15.000|10=456|
8=FIX.4.4|9=160|35=8|49=SenderCompID|56=TargetCompID|34=5|52=20250210-12:00:20.000|11=Order123|17=ExecID2|150=1|39=1|55=AAPL|54=1|38=100|44=150.25|32=50|31=150.30|10=567|
8=FIX.4.4|9=80|35=0|49=SenderCompID|56=TargetCompID|34=6|52=20250210-12:00:25.000|10=678|
8=FIX.4.4|9=160|35=8|49=SenderCompID|56=TargetCompID|34=7|52=20250210-12:00:30.000|11=Order123|17=ExecID3|150=2|39=2|55=AAPL|54=1|38=100|44=150.25|32=50|31=150.35|10=789|
8=FIX.4.4|9=80|35=0|49=SenderCompID|56=TargetCompID|34=8|52=20250210-12:00:35.000|10=890|
8=FIX.4.4|9=160|35=8|49=SenderCompID|56=TargetCompID|34=9|52=20250210-12:00:40.000|11=Order456|17=ExecID4|150=0|39=0|55=MSFT|54=2|38=200|44=320.50|10=901|
8=FIX.4.4|9=80|35=0|49=SenderCompID|56=TargetCompID|34=10|52=20250210-12:00:45.000|10=012|
8=FIX.4.4|9=160|35=8|49=SenderCompID|56=TargetCompID|34=11|52=20250210-12:00:50.000|11=Order456|17=ExecID5|150=1|39=1|55=MSFT|54=2|38=200|44=320.50|32=100|31=320.75|10=123|
8=FIX.4.4|9=80|35=0|49=SenderCompID|56=TargetCompID|34=12|52=20250210-12:00:55.000|10=234|
8=FIX.4.4|9=160|35=8|49=SenderCompID|56=TargetCompID|34=13|52=20250210-12:01:00.000|11=Order456|17=ExecID6|150=2|39=2|55=MSFT|54=2|38=200|44=320.50|32=100|31=321.00|10=345|
